{
  "_format": "hh-sol-artifact-1",
  "contractName": "BuyMeACoffee",
  "sourceName": "contracts/BuyMeACoffee.sol",
  "abi": [
    {
      "inputs": [],
      "stateMutability": "nonpayable",
      "type": "constructor"
    },
    {
      "anonymous": false,
      "inputs": [
        {
          "indexed": true,
          "internalType": "address",
          "name": "from",
          "type": "address"
        },
        {
          "indexed": false,
          "internalType": "uint256",
          "name": "timestamp",
          "type": "uint256"
        },
        {
          "indexed": false,
          "internalType": "string",
          "name": "name",
          "type": "string"
        },
        {
          "indexed": false,
          "internalType": "string",
          "name": "message",
          "type": "string"
        }
      ],
      "name": "NewMemo",
      "type": "event"
    },
    {
      "inputs": [
        {
          "internalType": "string",
          "name": "_name",
          "type": "string"
        },
        {
          "internalType": "string",
          "name": "_message",
          "type": "string"
        }
      ],
      "name": "buyCoffee",
      "outputs": [],
      "stateMutability": "payable",
      "type": "function"
    },
    {
      "inputs": [],
      "name": "checkOwner",
      "outputs": [
        {
          "internalType": "address",
          "name": "",
          "type": "address"
        }
      ],
      "stateMutability": "view",
      "type": "function"
    },
    {
      "inputs": [],
      "name": "getMemos",
      "outputs": [
        {
          "components": [
            {
              "internalType": "address",
              "name": "from",
              "type": "address"
            },
            {
              "internalType": "uint256",
              "name": "timestamp",
              "type": "uint256"
            },
            {
              "internalType": "string",
              "name": "name",
              "type": "string"
            },
            {
              "internalType": "string",
              "name": "message",
              "type": "string"
            }
          ],
          "internalType": "struct BuyMeACoffee.Memo[]",
          "name": "",
          "type": "tuple[]"
        }
      ],
      "stateMutability": "view",
      "type": "function"
    },
    {
      "inputs": [
        {
          "internalType": "address payable",
          "name": "newOwner",
          "type": "address"
        }
      ],
      "name": "updateOwner",
      "outputs": [],
      "stateMutability": "nonpayable",
      "type": "function"
    },
    {
      "inputs": [],
      "name": "withdrawTips",
      "outputs": [],
      "stateMutability": "nonpayable",
      "type": "function"
    }
  ],
  "bytecode": "0x608060405234801561001057600080fd5b50336000806101000a81548173ffffffffffffffffffffffffffffffffffffffff021916908373ffffffffffffffffffffffffffffffffffffffff160217905550610d33806100606000396000f3fe60806040526004361061004a5760003560e01c8063204206e11461004f5780633aaa74b21461006b578063865c517214610082578063880cdc31146100ad578063cdbce03d146100d6575b600080fd5b610069600480360381019061006491906107c3565b610101565b005b34801561007757600080fd5b50610080610289565b005b34801561008e57600080fd5b506100976102e9565b6040516100a49190610a49565b60405180910390f35b3480156100b957600080fd5b506100d460048036038101906100cf9190610aa9565b6104cc565b005b3480156100e257600080fd5b506100eb61059d565b6040516100f89190610ae5565b60405180910390f35b60003411610144576040517f08c379a000000000000000000000000000000000000000000000000000000000815260040161013b90610b5d565b60405180910390fd5b600160405180608001604052803373ffffffffffffffffffffffffffffffffffffffff16815260200142815260200184815260200183815250908060018154018082558091505060019003906000526020600020906004020160009091909190915060008201518160000160006101000a81548173ffffffffffffffffffffffffffffffffffffffff021916908373ffffffffffffffffffffffffffffffffffffffff1602179055506020820151816001015560408201518160020190805190602001906102139291906105c6565b5060608201518160030190805190602001906102309291906105c6565b5050503373ffffffffffffffffffffffffffffffffffffffff167fc56140e05f516509ae28110e0f72e17558a7561630dad2647c3ae87d986e365c42848460405161027d93929190610bc5565b60405180910390a25050565b60008054906101000a900473ffffffffffffffffffffffffffffffffffffffff1673ffffffffffffffffffffffffffffffffffffffff166108fc479081150290604051600060405180830381858888f193505050506102e757600080fd5b565b60606001805480602002602001604051908101604052809291908181526020016000905b828210156104c357838290600052602060002090600402016040518060800160405290816000820160009054906101000a900473ffffffffffffffffffffffffffffffffffffffff1673ffffffffffffffffffffffffffffffffffffffff1673ffffffffffffffffffffffffffffffffffffffff168152602001600182015481526020016002820180546103a090610c39565b80601f01602080910402602001604051908101604052809291908181526020018280546103cc90610c39565b80156104195780601f106103ee57610100808354040283529160200191610419565b820191906000526020600020905b8154815290600101906020018083116103fc57829003601f168201915b5050505050815260200160038201805461043290610c39565b80601f016020809104026020016040519081016040528092919081815260200182805461045e90610c39565b80156104ab5780601f10610480576101008083540402835291602001916104ab565b820191906000526020600020905b81548152906001019060200180831161048e57829003601f168201915b5050505050815250508152602001906001019061030d565b50505050905090565b60008054906101000a900473ffffffffffffffffffffffffffffffffffffffff1673ffffffffffffffffffffffffffffffffffffffff163373ffffffffffffffffffffffffffffffffffffffff161461055a576040517f08c379a000000000000000000000000000000000000000000000000000000000815260040161055190610cdd565b60405180910390fd5b806000806101000a81548173ffffffffffffffffffffffffffffffffffffffff021916908373ffffffffffffffffffffffffffffffffffffffff16021790555050565b60008060009054906101000a900473ffffffffffffffffffffffffffffffffffffffff16905090565b8280546105d290610c39565b90600052602060002090601f0160209004810192826105f4576000855561063b565b82601f1061060d57805160ff191683800117855561063b565b8280016001018555821561063b579182015b8281111561063a57825182559160200191906001019061061f565b5b509050610648919061064c565b5090565b5b8082111561066557600081600090555060010161064d565b5090565b6000604051905090565b600080fd5b600080fd5b600080fd5b600080fd5b6000601f19601f8301169050919050565b7f4e487b7100000000000000000000000000000000000000000000000000000000600052604160045260246000fd5b6106d082610687565b810181811067ffffffffffffffff821117156106ef576106ee610698565b5b80604052505050565b6000610702610669565b905061070e82826106c7565b919050565b600067ffffffffffffffff82111561072e5761072d610698565b5b61073782610687565b9050602081019050919050565b82818337600083830152505050565b600061076661076184610713565b6106f8565b90508281526020810184848401111561078257610781610682565b5b61078d848285610744565b509392505050565b600082601f8301126107aa576107a961067d565b5b81356107ba848260208601610753565b91505092915050565b600080604083850312156107da576107d9610673565b5b600083013567ffffffffffffffff8111156107f8576107f7610678565b5b61080485828601610795565b925050602083013567ffffffffffffffff81111561082557610824610678565b5b61083185828601610795565b9150509250929050565b600081519050919050565b600082825260208201905092915050565b6000819050602082019050919050565b600073ffffffffffffffffffffffffffffffffffffffff82169050919050565b600061089282610867565b9050919050565b6108a281610887565b82525050565b6000819050919050565b6108bb816108a8565b82525050565b600081519050919050565b600082825260208201905092915050565b60005b838110156108fb5780820151818401526020810190506108e0565b8381111561090a576000848401525b50505050565b600061091b826108c1565b61092581856108cc565b93506109358185602086016108dd565b61093e81610687565b840191505092915050565b60006080830160008301516109616000860182610899565b50602083015161097460208601826108b2565b506040830151848203604086015261098c8282610910565b915050606083015184820360608601526109a68282610910565b9150508091505092915050565b60006109bf8383610949565b905092915050565b6000602082019050919050565b60006109df8261083b565b6109e98185610846565b9350836020820285016109fb85610857565b8060005b85811015610a375784840389528151610a1885826109b3565b9450610a23836109c7565b925060208a019950506001810190506109ff565b50829750879550505050505092915050565b60006020820190508181036000830152610a6381846109d4565b905092915050565b6000610a7682610867565b9050919050565b610a8681610a6b565b8114610a9157600080fd5b50565b600081359050610aa381610a7d565b92915050565b600060208284031215610abf57610abe610673565b5b6000610acd84828501610a94565b91505092915050565b610adf81610887565b82525050565b6000602082019050610afa6000830184610ad6565b92915050565b600082825260208201905092915050565b7f63616e27742062757920636f6666656520666f72206672656521000000000000600082015250565b6000610b47601a83610b00565b9150610b5282610b11565b602082019050919050565b60006020820190508181036000830152610b7681610b3a565b9050919050565b610b86816108a8565b82525050565b6000610b97826108c1565b610ba18185610b00565b9350610bb18185602086016108dd565b610bba81610687565b840191505092915050565b6000606082019050610bda6000830186610b7d565b8181036020830152610bec8185610b8c565b90508181036040830152610c008184610b8c565b9050949350505050565b7f4e487b7100000000000000000000000000000000000000000000000000000000600052602260045260246000fd5b60006002820490506001821680610c5157607f821691505b60208210811415610c6557610c64610c0a565b5b50919050565b7f4f6e6c7920746865206f776e65722063616e206368616e676520746865206f7760008201527f6e65727368697021000000000000000000000000000000000000000000000000602082015250565b6000610cc7602883610b00565b9150610cd282610c6b565b604082019050919050565b60006020820190508181036000830152610cf681610cba565b905091905056fea264697066735822122081be03477181397485ebb6f417176fae8089960acc31cbac2fb92314ba84306464736f6c63430008090033",
  "linkReferences": {},
  "deployedLinkReferences": {}
}